{
  "_format": "hh-sol-artifact-1",
  "contractName": "DappLottery",
  "sourceName": "contracts/DappLottery.sol",
  "abi": [
    {
      "inputs": [
        {
          "internalType": "uint256",
          "name": "_servicePercent",
          "type": "uint256"
        }
      ],
      "stateMutability": "nonpayable",
      "type": "constructor"
    },
    {
      "anonymous": false,
      "inputs": [
        {
          "indexed": true,
          "internalType": "address",
          "name": "previousOwner",
          "type": "address"
        },
        {
          "indexed": true,
          "internalType": "address",
          "name": "newOwner",
          "type": "address"
        }
      ],
      "name": "OwnershipTransferred",
      "type": "event"
    },
    {
      "inputs": [
        {
          "internalType": "uint256",
          "name": "id",
          "type": "uint256"
        },
        {
          "internalType": "uint256",
          "name": "luckyNumberId",
          "type": "uint256"
        }
      ],
      "name": "buyTicket",
      "outputs": [],
      "stateMutability": "payable",
      "type": "function"
    },
    {
      "inputs": [
        {
          "internalType": "string",
          "name": "title",
          "type": "string"
        },
        {
          "internalType": "string",
          "name": "description",
          "type": "string"
        },
        {
          "internalType": "string",
          "name": "image",
          "type": "string"
        },
        {
          "internalType": "uint256",
          "name": "prize",
          "type": "uint256"
        },
        {
          "internalType": "uint256",
          "name": "ticketPrice",
          "type": "uint256"
        },
        {
          "internalType": "uint256",
          "name": "expiresAt",
          "type": "uint256"
        }
      ],
      "name": "createLottery",
      "outputs": [],
      "stateMutability": "nonpayable",
      "type": "function"
    },
    {
      "inputs": [],
      "name": "currentTime",
      "outputs": [
        {
          "internalType": "uint256",
          "name": "",
          "type": "uint256"
        }
      ],
      "stateMutability": "view",
      "type": "function"
    },
    {
      "inputs": [],
      "name": "getLotteries",
      "outputs": [
        {
          "components": [
            {
              "internalType": "uint256",
              "name": "id",
              "type": "uint256"
            },
            {
              "internalType": "string",
              "name": "title",
              "type": "string"
            },
            {
              "internalType": "string",
              "name": "description",
              "type": "string"
            },
            {
              "internalType": "string",
              "name": "image",
              "type": "string"
            },
            {
              "internalType": "uint256",
              "name": "prize",
              "type": "uint256"
            },
            {
              "internalType": "uint256",
              "name": "ticketPrice",
              "type": "uint256"
            },
            {
              "internalType": "uint256",
              "name": "participants",
              "type": "uint256"
            },
            {
              "internalType": "uint256",
              "name": "winners",
              "type": "uint256"
            },
            {
              "internalType": "bool",
              "name": "drawn",
              "type": "bool"
            },
            {
              "internalType": "address",
              "name": "owner",
              "type": "address"
            },
            {
              "internalType": "uint256",
              "name": "createdAt",
              "type": "uint256"
            },
            {
              "internalType": "uint256",
              "name": "expiresAt",
              "type": "uint256"
            }
          ],
          "internalType": "struct DappLottery.LotteryStruct[]",
          "name": "Lotteries",
          "type": "tuple[]"
        }
      ],
      "stateMutability": "view",
      "type": "function"
    },
    {
      "inputs": [
        {
          "internalType": "uint256",
          "name": "id",
          "type": "uint256"
        }
      ],
      "name": "getLottery",
      "outputs": [
        {
          "components": [
            {
              "internalType": "uint256",
              "name": "id",
              "type": "uint256"
            },
            {
              "internalType": "string",
              "name": "title",
              "type": "string"
            },
            {
              "internalType": "string",
              "name": "description",
              "type": "string"
            },
            {
              "internalType": "string",
              "name": "image",
              "type": "string"
            },
            {
              "internalType": "uint256",
              "name": "prize",
              "type": "uint256"
            },
            {
              "internalType": "uint256",
              "name": "ticketPrice",
              "type": "uint256"
            },
            {
              "internalType": "uint256",
              "name": "participants",
              "type": "uint256"
            },
            {
              "internalType": "uint256",
              "name": "winners",
              "type": "uint256"
            },
            {
              "internalType": "bool",
              "name": "drawn",
              "type": "bool"
            },
            {
              "internalType": "address",
              "name": "owner",
              "type": "address"
            },
            {
              "internalType": "uint256",
              "name": "createdAt",
              "type": "uint256"
            },
            {
              "internalType": "uint256",
              "name": "expiresAt",
              "type": "uint256"
            }
          ],
          "internalType": "struct DappLottery.LotteryStruct",
          "name": "",
          "type": "tuple"
        }
      ],
      "stateMutability": "view",
      "type": "function"
    },
    {
      "inputs": [
        {
          "internalType": "uint256",
          "name": "id",
          "type": "uint256"
        }
      ],
      "name": "getLotteryLuckyNumbers",
      "outputs": [
        {
          "internalType": "string[]",
          "name": "",
          "type": "string[]"
        }
      ],
      "stateMutability": "view",
      "type": "function"
    },
    {
      "inputs": [
        {
          "internalType": "uint256",
          "name": "id",
          "type": "uint256"
        }
      ],
      "name": "getLotteryParticipants",
      "outputs": [
        {
          "components": [
            {
              "internalType": "address",
              "name": "account",
              "type": "address"
            },
            {
              "internalType": "string",
              "name": "lotteryNumber",
              "type": "string"
            },
            {
              "internalType": "bool",
              "name": "paid",
              "type": "bool"
            }
          ],
          "internalType": "struct DappLottery.ParticipantStruct[]",
          "name": "",
          "type": "tuple[]"
        }
      ],
      "stateMutability": "view",
      "type": "function"
    },
    {
      "inputs": [
        {
          "internalType": "uint256",
          "name": "id",
          "type": "uint256"
        }
      ],
      "name": "getLotteryResult",
      "outputs": [
        {
          "components": [
            {
              "internalType": "uint256",
              "name": "id",
              "type": "uint256"
            },
            {
              "internalType": "bool",
              "name": "completed",
              "type": "bool"
            },
            {
              "internalType": "bool",
              "name": "paidout",
              "type": "bool"
            },
            {
              "internalType": "uint256",
              "name": "timestamp",
              "type": "uint256"
            },
            {
              "internalType": "uint256",
              "name": "sharePerWinner",
              "type": "uint256"
            },
            {
              "components": [
                {
                  "internalType": "address",
                  "name": "account",
                  "type": "address"
                },
                {
                  "internalType": "string",
                  "name": "lotteryNumber",
                  "type": "string"
                },
                {
                  "internalType": "bool",
                  "name": "paid",
                  "type": "bool"
                }
              ],
              "internalType": "struct DappLottery.ParticipantStruct[]",
              "name": "winners",
              "type": "tuple[]"
            }
          ],
          "internalType": "struct DappLottery.LotteryResultStruct",
          "name": "",
          "type": "tuple"
        }
      ],
      "stateMutability": "view",
      "type": "function"
    },
    {
      "inputs": [
        {
          "internalType": "uint256",
          "name": "id",
          "type": "uint256"
        },
        {
          "internalType": "string[]",
          "name": "luckyNumbers",
          "type": "string[]"
        }
      ],
      "name": "importLuckyNumbers",
      "outputs": [],
      "stateMutability": "nonpayable",
      "type": "function"
    },
    {
      "inputs": [],
      "name": "owner",
      "outputs": [
        {
          "internalType": "address",
          "name": "",
          "type": "address"
        }
      ],
      "stateMutability": "view",
      "type": "function"
    },
    {
      "inputs": [
        {
          "internalType": "uint256",
          "name": "id",
          "type": "uint256"
        },
        {
          "internalType": "uint256",
          "name": "numOfWinners",
          "type": "uint256"
        }
      ],
      "name": "randomlySelectWinners",
      "outputs": [],
      "stateMutability": "nonpayable",
      "type": "function"
    },
    {
      "inputs": [],
      "name": "renounceOwnership",
      "outputs": [],
      "stateMutability": "nonpayable",
      "type": "function"
    },
    {
      "inputs": [],
      "name": "serviceBalance",
      "outputs": [
        {
          "internalType": "uint256",
          "name": "",
          "type": "uint256"
        }
      ],
      "stateMutability": "view",
      "type": "function"
    },
    {
      "inputs": [],
      "name": "servicePercent",
      "outputs": [
        {
          "internalType": "uint256",
          "name": "",
          "type": "uint256"
        }
      ],
      "stateMutability": "view",
      "type": "function"
    },
    {
      "inputs": [
        {
          "internalType": "address",
          "name": "newOwner",
          "type": "address"
        }
      ],
      "name": "transferOwnership",
      "outputs": [],
      "stateMutability": "nonpayable",
      "type": "function"
    }
  ],
  "bytecode": "0x60806040523480156200001157600080fd5b506040516200268338038062002683833981016040819052620000349162000098565b6200003f3362000048565b600755620000b2565b600080546001600160a01b038381166001600160a01b0319831681178455604051919092169283917f8be0079c531659141344cd1fd0a4f28419497f9722a3daafe3b4186f6b6457e09190a35050565b600060208284031215620000ab57600080fd5b5051919050565b6125c180620000c26000396000f3fe6080604052600436106100e85760003560e01c806392e845f61161008a578063d18e81b311610059578063d18e81b314610282578063e2e4351614610297578063e8d490f1146102b7578063f2fde38b146102cd57600080fd5b806392e845f6146101e6578063949ee75214610213578063ad19c83914610240578063bcc82ec41461026057600080fd5b806370b261ae116100c657806370b261ae14610158578063715018a61461017c5780638772d2dd146101915780638da5cb5b146101be57600080fd5b8063298ec208146100ed57806335ea20631461010257806368fb2eba14610122575b600080fd5b6101006100fb366004611d9f565b6102ed565b005b34801561010e57600080fd5b5061010061011d366004611e78565b610568565b34801561012e57600080fd5b5061014261013d366004611f47565b610693565b60405161014f9190611fa6565b60405180910390f35b34801561016457600080fd5b5061016e60085481565b60405190815260200161014f565b34801561018857600080fd5b506101006107bf565b34801561019d57600080fd5b506101b16101ac366004611f47565b6107d3565b60405161014f9190612034565b3480156101ca57600080fd5b506000546040516001600160a01b03909116815260200161014f565b3480156101f257600080fd5b50610206610201366004611f47565b61097e565b60405161014f91906121ce565b34801561021f57600080fd5b5061023361022e366004611f47565b610bca565b60405161014f91906121e8565b34801561024c57600080fd5b5061010061025b36600461224a565b610cab565b34801561026c57600080fd5b50610275610fc9565b60405161014f91906122ee565b34801561028e57600080fd5b5061016e6112b0565b3480156102a357600080fd5b506101006102b2366004611d9f565b6112d1565b3480156102c357600080fd5b5061016e60075481565b3480156102d957600080fd5b506101006102e8366004612343565b6118c5565b600082815260056020908152604080832084845290915290205460ff161561035c5760405162461bcd60e51b815260206004820152601960248201527f4c75636b79206e756d62657220616c726561647920757365640000000000000060448201526064015b60405180910390fd5b6000828152600260205260409020600501543410156103c75760405162461bcd60e51b815260206004820152602160248201527f696e73756666696369656e742065746865727320746f20627579207469636b656044820152601d60fa1b6064820152608401610353565b60008281526002602052604081206006018054916103e483612382565b909155505060008281526003602090815260408083208151606081018352338152868552600484529190932080549192830191859081106104275761042761239b565b90600052602060002001805461043c906123b1565b80601f0160208091040260200160405190810160405280929190818152602001828054610468906123b1565b80156104b55780601f1061048a576101008083540402835291602001916104b5565b820191906000526020600020905b81548152906001019060200180831161049857829003601f168201915b50505091835250506000602091820181905283546001808201865594825290829020835160039092020180546001600160a01b0319166001600160a01b039092169190911781559082015191929091908201906105129082612439565b506040918201516002909101805491151560ff199283161790556000848152600560209081528382208583529052918220805490911660011790556008805434929061055f9084906124f9565b90915550505050565b60008151116105b95760405162461bcd60e51b815260206004820152601c60248201527f4c75636b79206e756d626572732063616e6e6f74206265207a65726f000000006044820152606401610353565b60008281526002602052604090206008015461010090046001600160a01b0316331461061d5760405162461bcd60e51b8152602060048201526013602482015272556e617574686f72697a656420656e7469747960681b6044820152606401610353565b60008281526004602052604090205460011161066f5760405162461bcd60e51b8152602060048201526011602482015270105b1c9958591e4819d95b995c985d1959607a1b6044820152606401610353565b6000828152600460209081526040909120825161068e92840190611c7a565b505050565b606060036000838152602001908152602001600020805480602002602001604051908101604052809291908181526020016000905b828210156107b457600084815260209081902060408051606081019091526003850290910180546001600160a01b031682526001810180549293919291840191610711906123b1565b80601f016020809104026020016040519081016040528092919081815260200182805461073d906123b1565b801561078a5780601f1061075f5761010080835404028352916020019161078a565b820191906000526020600020905b81548152906001019060200180831161076d57829003601f168201915b50505091835250506002919091015460ff16151560209182015290825260019290920191016106c8565b505050509050919050565b6107c761193e565b6107d16000611998565b565b6108106040518060c00160405280600081526020016000151581526020016000151581526020016000815260200160008152602001606081525090565b6000828152600660209081526040808320815160c08101835281548152600182015460ff8082161515838701526101009091041615158184015260028201546060820152600382015460808201526004820180548451818702810187019095528085529195929460a0870194939192919084015b8282101561097057600084815260209081902060408051606081019091526003850290910180546001600160a01b0316825260018101805492939192918401916108cd906123b1565b80601f01602080910402602001604051908101604052809291908181526020018280546108f9906123b1565b80156109465780601f1061091b57610100808354040283529160200191610946565b820191906000526020600020905b81548152906001019060200180831161092957829003601f168201915b50505091835250506002919091015460ff1615156020918201529082526001929092019101610884565b505050915250909392505050565b610986611ccc565b6002600083815260200190815260200160002060405180610180016040529081600082015481526020016001820180546109bf906123b1565b80601f01602080910402602001604051908101604052809291908181526020018280546109eb906123b1565b8015610a385780601f10610a0d57610100808354040283529160200191610a38565b820191906000526020600020905b815481529060010190602001808311610a1b57829003601f168201915b50505050508152602001600282018054610a51906123b1565b80601f0160208091040260200160405190810160405280929190818152602001828054610a7d906123b1565b8015610aca5780601f10610a9f57610100808354040283529160200191610aca565b820191906000526020600020905b815481529060010190602001808311610aad57829003601f168201915b50505050508152602001600382018054610ae3906123b1565b80601f0160208091040260200160405190810160405280929190818152602001828054610b0f906123b1565b8015610b5c5780601f10610b3157610100808354040283529160200191610b5c565b820191906000526020600020905b815481529060010190602001808311610b3f57829003601f168201915b505050918352505060048201546020820152600582015460408201526006820154606082015260078201546080820152600882015460ff8116151560a08301526001600160a01b03610100918290041660c0830152600983015460e0830152600a9092015491015292915050565b606060046000838152602001908152602001600020805480602002602001604051908101604052809291908181526020016000905b828210156107b4578382906000526020600020018054610c1e906123b1565b80601f0160208091040260200160405190810160405280929190818152602001828054610c4a906123b1565b8015610c975780601f10610c6c57610100808354040283529160200191610c97565b820191906000526020600020905b815481529060010190602001808311610c7a57829003601f168201915b505050505081526020019060010190610bff565b6000865111610cf45760405162461bcd60e51b81526020600482015260156024820152747469746c652063616e6e6f7420626520656d70747960581b6044820152606401610353565b6000855111610d455760405162461bcd60e51b815260206004820152601b60248201527f6465736372697074696f6e2063616e6e6f7420626520656d70747900000000006044820152606401610353565b6000845111610d8e5760405162461bcd60e51b8152602060048201526015602482015274696d6167652063616e6e6f7420626520656d70747960581b6044820152606401610353565b60008311610dd55760405162461bcd60e51b81526020600482015260146024820152737072697a652063616e6e6f74206265207a65726f60601b6044820152606401610353565b60008211610e255760405162461bcd60e51b815260206004820152601a60248201527f7469636b657450726963652063616e6e6f74206265207a65726f0000000000006044820152606401610353565b610e2d6112b0565b8111610e8b5760405162461bcd60e51b815260206004820152602760248201527f65787069726541742063616e6e6f74206265206c657373207468616e207468656044820152662066757475726560c81b6064820152608401610353565b610e99600180546001019055565b610ea1611ccc565b60015481526020810187905260408101869052606081018590526080810184905260a0810183905233610120820152610ed86112b0565b61014082015261016081018290528051600090815260026020908152604090912082518155908201518291906001820190610f139082612439565b5060408201516002820190610f289082612439565b5060608201516003820190610f3d9082612439565b506080820151600482015560a0820151600582015560c0820151600682015560e08201516007820155610100808301516008830180546101208601516001600160a81b0319909116921515610100600160a81b031916929092176001600160a01b03909216909202179055610140820151600982015561016090910151600a9091015550505050505050565b6060610fd460015490565b67ffffffffffffffff811115610fec57610fec611dc1565b60405190808252806020026020018201604052801561102557816020015b611012611ccc565b81526020019060019003908161100a5790505b50905060015b60015481116112ac5760026000828152602001908152602001600020604051806101800160405290816000820154815260200160018201805461106d906123b1565b80601f0160208091040260200160405190810160405280929190818152602001828054611099906123b1565b80156110e65780601f106110bb576101008083540402835291602001916110e6565b820191906000526020600020905b8154815290600101906020018083116110c957829003601f168201915b505050505081526020016002820180546110ff906123b1565b80601f016020809104026020016040519081016040528092919081815260200182805461112b906123b1565b80156111785780601f1061114d57610100808354040283529160200191611178565b820191906000526020600020905b81548152906001019060200180831161115b57829003601f168201915b50505050508152602001600382018054611191906123b1565b80601f01602080910402602001604051908101604052809291908181526020018280546111bd906123b1565b801561120a5780601f106111df5761010080835404028352916020019161120a565b820191906000526020600020905b8154815290600101906020018083116111ed57829003601f168201915b505050918352505060048201546020820152600582015460408201526006820154606082015260078201546080820152600882015460ff8116151560a08301526001600160a01b03610100918290041660c0830152600983015460e0830152600a909201549101528261127e60018461250c565b8151811061128e5761128e61239b565b602002602001018190525080806112a490612382565b91505061102b565b5090565b6000806112bf426103e861251f565b6112cb906103e86124f9565b92915050565b60008281526002602052604090206008015461010090046001600160a01b031633148061130857506000546001600160a01b031633145b61134a5760405162461bcd60e51b8152602060048201526013602482015272556e617574686f72697a656420656e7469747960681b6044820152606401610353565b60008281526006602052604090206001015460ff16156113b85760405162461bcd60e51b815260206004820152602360248201527f4c6f7474657279206861766520616c7265616479206265656e20636f6d706c656044820152621d195960ea1b6064820152608401610353565b60008281526003602052604090205481111561142f5760405162461bcd60e51b815260206004820152603060248201527f4e756d626572206f662077696e6e6572732065786365656473206e756d62657260448201526f206f66207061727469636970616e747360801b6064820152608401610353565b60008167ffffffffffffffff81111561144a5761144a611dc1565b6040519080825280602002602001820160405280156114aa57816020015b611497604051806060016040528060006001600160a01b03168152602001606081526020016000151581525090565b8152602001906001900390816114685790505b509050600060036000858152602001908152602001600020805480602002602001604051908101604052809291908181526020016000905b828210156115ce57600084815260209081902060408051606081019091526003850290910180546001600160a01b03168252600181018054929391929184019161152b906123b1565b80601f0160208091040260200160405190810160405280929190818152602001828054611557906123b1565b80156115a45780601f10611579576101008083540402835291602001916115a4565b820191906000526020600020905b81548152906001019060200180831161158757829003601f168201915b50505091835250506002919091015460ff16151560209182015290825260019290920191016114e2565b5050505090506000815167ffffffffffffffff8111156115f0576115f0611dc1565b604051908082528060200260200182016040528015611619578160200160208202803683370190505b50905060005b8251811015611658578082828151811061163b5761163b61239b565b60209081029190910101528061165081612382565b91505061161f565b50600060018351611669919061250c565b90505b6001811061174c5760006116818260016124f9565b6116896112b0565b60408051602081019290925281018490526060016040516020818303038152906040528051906020012060001c6116c0919061254c565b905060008382815181106116d6576116d661239b565b602002602001015190508383815181106116f2576116f261239b565b602002602001015184838151811061170c5761170c61239b565b6020026020010181815250508084848151811061172b5761172b61239b565b6020026020010181815250505050808061174490612560565b91505061166c565b5060005b84811015611854578282828151811061176b5761176b61239b565b6020026020010151815181106117835761178361239b565b602002602001015184828151811061179d5761179d61239b565b6020026020010181905250600660008781526020019081526020016000206004018482815181106117d0576117d061239b565b602090810291909101810151825460018082018555600094855293839020825160039092020180546001600160a01b0319166001600160a01b039092169190911781559181015190928201906118269082612439565b50604091909101516002909101805460ff19169115159190911790558061184c81612382565b915050611750565b5060008581526006602052604090206001908101805460ff1916909117905561187b6112b0565b6000868152600660209081526040808320600280820195909555600401549390915290206007810191909155600801805460ff191660011790556118be856119e8565b5050505050565b6118cd61193e565b6001600160a01b0381166119325760405162461bcd60e51b815260206004820152602660248201527f4f776e61626c653a206e6577206f776e657220697320746865207a65726f206160448201526564647265737360d01b6064820152608401610353565b61193b81611998565b50565b6000546001600160a01b031633146107d15760405162461bcd60e51b815260206004820181905260248201527f4f776e61626c653a2063616c6c6572206973206e6f7420746865206f776e65726044820152606401610353565b600080546001600160a01b038381166001600160a01b0319831681178455604051919092169283917f8be0079c531659141344cd1fd0a4f28419497f9722a3daafe3b4186f6b6457e09190a35050565b600081815260066020908152604080832060040180548251818502810185019093528083529192909190849084015b82821015611b0357600084815260209081902060408051606081019091526003850290910180546001600160a01b031682526001810180549293919291840191611a60906123b1565b80601f0160208091040260200160405190810160405280929190818152602001828054611a8c906123b1565b8015611ad95780601f10611aae57610100808354040283529160200191611ad9565b820191906000526020600020905b815481529060010190602001808311611abc57829003601f168201915b50505091835250506002919091015460ff1615156020918201529082526001929092019101611a17565b50505060008481526003602090815260408083205460029092528220600501549394509092611b32925061251f565b90506000606460075483611b46919061251f565b611b509190612577565b90506000611b5e828461250c565b90506000845182611b6f9190612577565b905060005b8551811015611bb657611ba4868281518110611b9257611b9261239b565b60200260200101516000015183611c1a565b80611bae81612382565b915050611b74565b50611bd2611bcc6000546001600160a01b031690565b84611c1a565b8360086000828254611be4919061250c565b9091555050600086815260066020526040902095865560018601805461ff00191661010017905560039095019490945550505050565b6000826001600160a01b03168260405160006040518083038185875af1925050503d8060008114611c67576040519150601f19603f3d011682016040523d82523d6000602084013e611c6c565b606091505b505090508061068e57600080fd5b828054828255906000526020600020908101928215611cc0579160200282015b82811115611cc05782518290611cb09082612439565b5091602001919060010190611c9a565b506112ac929150611d38565b604051806101800160405280600081526020016060815260200160608152602001606081526020016000815260200160008152602001600081526020016000815260200160001515815260200160006001600160a01b0316815260200160008152602001600081525090565b808211156112ac576000611d4c8282611d55565b50600101611d38565b508054611d61906123b1565b6000825580601f10611d71575050565b601f01602090049060005260206000209081019061193b91905b808211156112ac5760008155600101611d8b565b60008060408385031215611db257600080fd5b50508035926020909101359150565b634e487b7160e01b600052604160045260246000fd5b604051601f8201601f1916810167ffffffffffffffff81118282101715611e0057611e00611dc1565b604052919050565b600082601f830112611e1957600080fd5b813567ffffffffffffffff811115611e3357611e33611dc1565b611e46601f8201601f1916602001611dd7565b818152846020838601011115611e5b57600080fd5b816020850160208301376000918101602001919091529392505050565b60008060408385031215611e8b57600080fd5b8235915060208084013567ffffffffffffffff80821115611eab57600080fd5b818601915086601f830112611ebf57600080fd5b813581811115611ed157611ed1611dc1565b8060051b611ee0858201611dd7565b918252838101850191858101908a841115611efa57600080fd5b86860192505b83831015611f3657823585811115611f185760008081fd5b611f268c89838a0101611e08565b8352509186019190860190611f00565b809750505050505050509250929050565b600060208284031215611f5957600080fd5b5035919050565b6000815180845260005b81811015611f8657602081850181015186830182015201611f6a565b506000602082860101526020601f19601f83011685010191505092915050565b60006020808301818452808551808352604092508286019150828160051b87010184880160005b8381101561202657888303603f19018552815180516001600160a01b031684528781015160608986018190529061200682870182611f60565b928901511515958901959095525094870194925090860190600101611fcd565b509098975050505050505050565b6000602080835260e0830184518285015281850151604081151581870152808701519150606082151581880152808801516080880152608088015160a088015260a0880151925060c08088015283835180865261010095508589019150858160051b8a01019550868501945060005b818110156120f85789870360ff19018352855180516001600160a01b03168852888101518989018690526120d9868a0182611f60565b91870151151598870198909852965094870194918701916001016120a3565b50949998505050505050505050565b600061018082518452602083015181602086015261212782860182611f60565b915050604083015184820360408601526121418282611f60565b9150506060830151848203606086015261215b8282611f60565b9150506080830151608085015260a083015160a085015260c083015160c085015260e083015160e08501526101008084015161219a8287018215159052565b5050610120838101516001600160a01b03169085015261014080840151908501526101609283015192909301919091525090565b6020815260006121e16020830184612107565b9392505050565b6000602080830181845280855180835260408601915060408160051b870101925083870160005b8281101561223d57603f1988860301845261222b858351611f60565b9450928501929085019060010161220f565b5092979650505050505050565b60008060008060008060c0878903121561226357600080fd5b863567ffffffffffffffff8082111561227b57600080fd5b6122878a838b01611e08565b9750602089013591508082111561229d57600080fd5b6122a98a838b01611e08565b965060408901359150808211156122bf57600080fd5b506122cc89828a01611e08565b945050606087013592506080870135915060a087013590509295509295509295565b6000602080830181845280855180835260408601915060408160051b870101925083870160005b8281101561223d57603f19888603018452612331858351612107565b94509285019290850190600101612315565b60006020828403121561235557600080fd5b81356001600160a01b03811681146121e157600080fd5b634e487b7160e01b600052601160045260246000fd5b6000600182016123945761239461236c565b5060010190565b634e487b7160e01b600052603260045260246000fd5b600181811c908216806123c557607f821691505b6020821081036123e557634e487b7160e01b600052602260045260246000fd5b50919050565b601f82111561068e57600081815260208120601f850160051c810160208610156124125750805b601f850160051c820191505b818110156124315782815560010161241e565b505050505050565b815167ffffffffffffffff81111561245357612453611dc1565b6124678161246184546123b1565b846123eb565b602080601f83116001811461249c57600084156124845750858301515b600019600386901b1c1916600185901b178555612431565b600085815260208120601f198616915b828110156124cb578886015182559484019460019091019084016124ac565b50858210156124e95787850151600019600388901b60f8161c191681555b5050505050600190811b01905550565b808201808211156112cb576112cb61236c565b818103818111156112cb576112cb61236c565b80820281158282048414176112cb576112cb61236c565b634e487b7160e01b600052601260045260246000fd5b60008261255b5761255b612536565b500690565b60008161256f5761256f61236c565b506000190190565b60008261258657612586612536565b50049056fea26469706673582212203b128d2ab84ff52e6e3ef29110ca9cd2072223e89ee755d09e2823e5d17b3ebc64736f6c63430008110033",
  "linkReferences": {},
  "deployedLinkReferences": {}
}